{
  "_format": "hh-sol-artifact-1",
  "contractName": "WavePortal",
  "sourceName": "contracts/WavePortal.sol",
  "abi": [
    {
      "inputs": [],
      "stateMutability": "nonpayable",
      "type": "constructor"
    },
    {
      "inputs": [],
      "name": "getTotalWaves",
      "outputs": [
        {
          "internalType": "uint256",
          "name": "",
          "type": "uint256"
        }
      ],
      "stateMutability": "view",
      "type": "function"
    },
    {
      "inputs": [],
      "name": "wave",
      "outputs": [],
      "stateMutability": "nonpayable",
      "type": "function"
    },
    {
      "inputs": [
        {
          "internalType": "uint256",
          "name": "",
          "type": "uint256"
        }
      ],
      "name": "wavers",
      "outputs": [
        {
          "internalType": "address",
          "name": "",
          "type": "address"
        }
      ],
      "stateMutability": "view",
      "type": "function"
    }
  ],
  "bytecode": "0x60806040526000805534801561001457600080fd5b5061005d6040518060400160405280600d81526020017f576861742773207570646f673f0000000000000000000000000000000000000081525061006260201b6102f01760201c565b6101e5565b6100fe816040516024016100769190610163565b6040516020818303038152906040527f41304fac000000000000000000000000000000000000000000000000000000007bffffffffffffffffffffffffffffffffffffffffffffffffffffffff19166020820180517bffffffffffffffffffffffffffffffffffffffffffffffffffffffff838183161783525050505061010160201b60201c565b50565b60008151905060006a636f6e736f6c652e6c6f679050602083016000808483855afa5050505050565b600061013582610185565b61013f8185610190565b935061014f8185602086016101a1565b610158816101d4565b840191505092915050565b6000602082019050818103600083015261017d818461012a565b905092915050565b600081519050919050565b600082825260208201905092915050565b60005b838110156101bf5780820151818401526020810190506101a4565b838111156101ce576000848401525b50505050565b6000601f19601f8301169050919050565b610887806101f46000396000f3fe608060405234801561001057600080fd5b50600436106100415760003560e01c80633ca736bd146100465780636fe15b44146100765780639a2cdc0814610080575b600080fd5b610060600480360381019061005b9190610598565b61009e565b60405161006d9190610618565b60405180910390f35b61007e6100dd565b005b6100886102a5565b60405161009591906106b5565b60405180910390f35b600181815481106100ae57600080fd5b906000526020600020016000915054906101000a900473ffffffffffffffffffffffffffffffffffffffff1681565b60016000808282546100ef91906106ec565b925050819055506101356040518060400160405280600981526020017f257320776176656421000000000000000000000000000000000000000000000081525033610389565b6001339080600181540180825580915050600190039060005260206000200160009091909190916101000a81548173ffffffffffffffffffffffffffffffffffffffff021916908373ffffffffffffffffffffffffffffffffffffffff1602179055506101d66040518060400160405280600f81526020017f4c697374206f66207761766572733a00000000000000000000000000000000008152506102f0565b60005b6001805490508110156102645761025360018281548110610223577f4e487b7100000000000000000000000000000000000000000000000000000000600052603260045260246000fd5b9060005260206000200160009054906101000a900473ffffffffffffffffffffffffffffffffffffffff16610425565b8061025d906107b1565b90506101d9565b506102a36040518060400160405280600181526020017f0a000000000000000000000000000000000000000000000000000000000000008152506102f0565b565b60006102e86040518060400160405280600d81526020017f25642070706c20776176657321000000000000000000000000000000000000008152506000546104be565b600054905090565b610386816040516024016103049190610633565b6040516020818303038152906040527f41304fac000000000000000000000000000000000000000000000000000000007bffffffffffffffffffffffffffffffffffffffffffffffffffffffff19166020820180517bffffffffffffffffffffffffffffffffffffffffffffffffffffffff838183161783525050505061055a565b50565b610421828260405160240161039f929190610655565b6040516020818303038152906040527f319af333000000000000000000000000000000000000000000000000000000007bffffffffffffffffffffffffffffffffffffffffffffffffffffffff19166020820180517bffffffffffffffffffffffffffffffffffffffffffffffffffffffff838183161783525050505061055a565b5050565b6104bb816040516024016104399190610618565b6040516020818303038152906040527f2c2ecbc2000000000000000000000000000000000000000000000000000000007bffffffffffffffffffffffffffffffffffffffffffffffffffffffff19166020820180517bffffffffffffffffffffffffffffffffffffffffffffffffffffffff838183161783525050505061055a565b50565b61055682826040516024016104d4929190610685565b6040516020818303038152906040527f9710a9d0000000000000000000000000000000000000000000000000000000007bffffffffffffffffffffffffffffffffffffffffffffffffffffffff19166020820180517bffffffffffffffffffffffffffffffffffffffffffffffffffffffff838183161783525050505061055a565b5050565b60008151905060006a636f6e736f6c652e6c6f679050602083016000808483855afa5050505050565b6000813590506105928161083a565b92915050565b6000602082840312156105aa57600080fd5b60006105b884828501610583565b91505092915050565b6105ca81610742565b82525050565b60006105db826106d0565b6105e581856106db565b93506105f581856020860161077e565b6105fe81610829565b840191505092915050565b61061281610774565b82525050565b600060208201905061062d60008301846105c1565b92915050565b6000602082019050818103600083015261064d81846105d0565b905092915050565b6000604082019050818103600083015261066f81856105d0565b905061067e60208301846105c1565b9392505050565b6000604082019050818103600083015261069f81856105d0565b90506106ae6020830184610609565b9392505050565b60006020820190506106ca6000830184610609565b92915050565b600081519050919050565b600082825260208201905092915050565b60006106f782610774565b915061070283610774565b9250827fffffffffffffffffffffffffffffffffffffffffffffffffffffffffffffffff03821115610737576107366107fa565b5b828201905092915050565b600061074d82610754565b9050919050565b600073ffffffffffffffffffffffffffffffffffffffff82169050919050565b6000819050919050565b60005b8381101561079c578082015181840152602081019050610781565b838111156107ab576000848401525b50505050565b60006107bc82610774565b91507fffffffffffffffffffffffffffffffffffffffffffffffffffffffffffffffff8214156107ef576107ee6107fa565b5b600182019050919050565b7f4e487b7100000000000000000000000000000000000000000000000000000000600052601160045260246000fd5b6000601f19601f8301169050919050565b61084381610774565b811461084e57600080fd5b5056fea2646970667358221220c267a32f4c460b9d9d0b6743508d8fa5c4ccf08527fa5b1784e9c4eb82948e1364736f6c63430008040033",
  "linkReferences": {},
  "deployedLinkReferences": {}
}